{
  "contractName": "BasicToken",
  "abi": [
    {
      "constant": true,
      "inputs": [],
      "name": "initialSupply",
      "outputs": [
        {
          "name": "",
          "type": "uint256"
        }
      ],
      "payable": false,
      "stateMutability": "view",
      "type": "function"
    },
    {
      "inputs": [
        {
          "name": "_initialSupply",
          "type": "uint256"
        }
      ],
      "payable": false,
      "stateMutability": "nonpayable",
      "type": "constructor"
    },
    {
      "constant": false,
      "inputs": [
        {
          "name": "_recipient",
          "type": "address"
        },
        {
          "name": "_amount",
          "type": "uint256"
        }
      ],
      "name": "transfer",
      "outputs": [],
      "payable": false,
      "stateMutability": "nonpayable",
      "type": "function"
    },
    {
      "constant": true,
      "inputs": [
        {
          "name": "_owner",
          "type": "address"
        }
      ],
      "name": "balanceOf",
      "outputs": [
        {
          "name": "",
          "type": "uint256"
        }
      ],
      "payable": false,
      "stateMutability": "view",
      "type": "function"
    },
    {
      "constant": true,
      "inputs": [],
      "name": "balanceOf",
      "outputs": [
        {
          "name": "",
          "type": "uint256"
        }
      ],
      "payable": false,
      "stateMutability": "view",
      "type": "function"
    }
  ],
  "bytecode": "0x608060405234801561001057600080fd5b50604051602080610527833981018060405281019080805190602001909291905050508060008190555080600160003373ffffffffffffffffffffffffffffffffffffffff1673ffffffffffffffffffffffffffffffffffffffff16815260200190815260200160002081905550506104998061008e6000396000f300608060405260043610610062576000357c0100000000000000000000000000000000000000000000000000000000900463ffffffff168063378dc3dc1461006757806370a0823114610092578063722713f7146100e9578063a9059cbb14610114575b600080fd5b34801561007357600080fd5b5061007c610161565b6040518082815260200191505060405180910390f35b34801561009e57600080fd5b506100d3600480360381019080803573ffffffffffffffffffffffffffffffffffffffff169060200190929190505050610167565b6040518082815260200191505060405180910390f35b3480156100f557600080fd5b506100fe6101b0565b6040518082815260200191505060405180910390f35b34801561012057600080fd5b5061015f600480360381019080803573ffffffffffffffffffffffffffffffffffffffff169060200190929190803590602001909291905050506101c0565b005b60005481565b6000600160008373ffffffffffffffffffffffffffffffffffffffff1673ffffffffffffffffffffffffffffffffffffffff168152602001908152602001600020549050919050565b60006101bb33610167565b905090565b80600160003373ffffffffffffffffffffffffffffffffffffffff1673ffffffffffffffffffffffffffffffffffffffff1681526020019081526020016000205410151515610277576040517f08c379a00000000000000000000000000000000000000000000000000000000081526004018080602001828103825260108152602001807f4e6f7420656e6f7567682066756e64730000000000000000000000000000000081525060200191505060405180910390fd5b3373ffffffffffffffffffffffffffffffffffffffff168273ffffffffffffffffffffffffffffffffffffffff1614151515610341576040517f08c379a00000000000000000000000000000000000000000000000000000000081526004018080602001828103825260228152602001807f4e6f206e65656420746f2073656e6420746f6b656e7320746f20796f7572736581526020017f6c6600000000000000000000000000000000000000000000000000000000000081525060400191505060405180910390fd5b600160008373ffffffffffffffffffffffffffffffffffffffff1673ffffffffffffffffffffffffffffffffffffffff1681526020019081526020016000205481600160008573ffffffffffffffffffffffffffffffffffffffff1673ffffffffffffffffffffffffffffffffffffffff16815260200190815260200160002054011115156103cf57600080fd5b80600160003373ffffffffffffffffffffffffffffffffffffffff1673ffffffffffffffffffffffffffffffffffffffff1681526020019081526020016000206000828254039250508190555080600160008473ffffffffffffffffffffffffffffffffffffffff1673ffffffffffffffffffffffffffffffffffffffff1681526020019081526020016000206000828254019250508190555050505600a165627a7a7230582098e69e3175509d92d0665083e1ff71c829429db3802467cc5929694535ee9f630029",
  "source": "pragma solidity ^0.4.22;\r\n\r\ncontract BasicToken {\r\n    uint public initialSupply;\r\n\r\n    mapping(address=>uint) balances;\r\n    \r\n    constructor(uint _initialSupply) public {\r\n        initialSupply = _initialSupply;\r\n        balances[msg.sender] = _initialSupply;\r\n    }\r\n    \r\n    function transfer(address _recipient, uint _amount) public {\r\n        require(balances[msg.sender] >= _amount, \"Not enough funds\");\r\n        require(_recipient != msg.sender, \"No need to send tokens to yourself\");\r\n        require(balances[_recipient] + _amount > balances[_recipient]); //overflow check\r\n        balances[msg.sender] -= _amount;\r\n        balances[_recipient] += _amount;\r\n    }\r\n\r\n    function balanceOf(address _owner) public view returns (uint) {\r\n        return balances[_owner];\r\n    }\r\n    \r\n    function balanceOf() public view returns (uint) {\r\n        return balanceOf(msg.sender);\r\n    }\r\n\t\r\n}",
  "sourcePath": "D:\\GitHub\\Blockchain-Ethereum-Solidity\\CryptoZombies\\contracts\\basictoken.sol",
  "compiler": {
    "name": "solc",
    "version": "0.4.24+commit.e67f0147.Emscripten.clang"
  },
  "schemaVersion": "2.0.1",
  "updatedAt": "2018-09-14T14:01:28.370Z"
}