{
  "contractName": "ZombieFactory",
  "abi": [
    {
      "constant": true,
      "inputs": [
        {
          "name": "",
          "type": "address"
        }
      ],
      "name": "ownerZombieCount",
      "outputs": [
        {
          "name": "",
          "type": "uint256"
        }
      ],
      "payable": false,
      "stateMutability": "view",
      "type": "function"
    },
    {
      "constant": true,
      "inputs": [
        {
          "name": "",
          "type": "uint256"
        }
      ],
      "name": "zombies",
      "outputs": [
        {
          "name": "name",
          "type": "string"
        },
        {
          "name": "dna",
          "type": "uint256"
        },
        {
          "name": "level",
          "type": "uint32"
        },
        {
          "name": "readyTime",
          "type": "uint32"
        },
        {
          "name": "winCount",
          "type": "uint16"
        },
        {
          "name": "lossCount",
          "type": "uint16"
        }
      ],
      "payable": false,
      "stateMutability": "view",
      "type": "function"
    },
    {
      "constant": true,
      "inputs": [
        {
          "name": "",
          "type": "uint256"
        }
      ],
      "name": "zombieToOwner",
      "outputs": [
        {
          "name": "",
          "type": "address"
        }
      ],
      "payable": false,
      "stateMutability": "view",
      "type": "function"
    },
    {
      "constant": true,
      "inputs": [],
      "name": "dnaDigits",
      "outputs": [
        {
          "name": "",
          "type": "uint256"
        }
      ],
      "payable": false,
      "stateMutability": "view",
      "type": "function"
    },
    {
      "constant": false,
      "inputs": [],
      "name": "renounceOwnership",
      "outputs": [],
      "payable": false,
      "stateMutability": "nonpayable",
      "type": "function"
    },
    {
      "constant": true,
      "inputs": [],
      "name": "owner",
      "outputs": [
        {
          "name": "",
          "type": "address"
        }
      ],
      "payable": false,
      "stateMutability": "view",
      "type": "function"
    },
    {
      "constant": true,
      "inputs": [],
      "name": "cooldownTime",
      "outputs": [
        {
          "name": "",
          "type": "uint256"
        }
      ],
      "payable": false,
      "stateMutability": "view",
      "type": "function"
    },
    {
      "constant": true,
      "inputs": [],
      "name": "dnaModulus",
      "outputs": [
        {
          "name": "",
          "type": "uint256"
        }
      ],
      "payable": false,
      "stateMutability": "view",
      "type": "function"
    },
    {
      "constant": false,
      "inputs": [
        {
          "name": "_newOwner",
          "type": "address"
        }
      ],
      "name": "transferOwnership",
      "outputs": [],
      "payable": false,
      "stateMutability": "nonpayable",
      "type": "function"
    },
    {
      "anonymous": false,
      "inputs": [
        {
          "indexed": false,
          "name": "zombieId",
          "type": "uint256"
        },
        {
          "indexed": false,
          "name": "name",
          "type": "string"
        },
        {
          "indexed": false,
          "name": "dna",
          "type": "uint256"
        }
      ],
      "name": "NewZombie",
      "type": "event"
    },
    {
      "anonymous": false,
      "inputs": [
        {
          "indexed": true,
          "name": "previousOwner",
          "type": "address"
        }
      ],
      "name": "OwnershipRenounced",
      "type": "event"
    },
    {
      "anonymous": false,
      "inputs": [
        {
          "indexed": true,
          "name": "previousOwner",
          "type": "address"
        },
        {
          "indexed": true,
          "name": "newOwner",
          "type": "address"
        }
      ],
      "name": "OwnershipTransferred",
      "type": "event"
    },
    {
      "constant": false,
      "inputs": [
        {
          "name": "_name",
          "type": "string"
        }
      ],
      "name": "createRandomZombie",
      "outputs": [],
      "payable": false,
      "stateMutability": "nonpayable",
      "type": "function"
    }
  ],
  "bytecode": "0x60806040526010600155600154600a0a60025562015180600355336000806101000a81548173ffffffffffffffffffffffffffffffffffffffff021916908373ffffffffffffffffffffffffffffffffffffffff160217905550610c55806100686000396000f3006080604052600436106100a4576000357c0100000000000000000000000000000000000000000000000000000000900463ffffffff16806301afd7e1146100a95780632052465e14610100578063528b7b8f146101f1578063692c66271461025e578063715018a6146102895780637bff0a01146102a05780638da5cb5b14610309578063b319c6b714610360578063daba07111461038b578063f2fde38b146103b6575b600080fd5b3480156100b557600080fd5b506100ea600480360381019080803573ffffffffffffffffffffffffffffffffffffffff1690602001909291905050506103f9565b6040518082815260200191505060405180910390f35b34801561010c57600080fd5b5061012b60048036038101908080359060200190929190505050610411565b60405180806020018781526020018663ffffffff1663ffffffff1681526020018563ffffffff1663ffffffff1681526020018461ffff1661ffff1681526020018361ffff1661ffff168152602001828103825288818151815260200191508051906020019080838360005b838110156101b1578082015181840152602081019050610196565b50505050905090810190601f1680156101de5780820380516001836020036101000a031916815260200191505b5097505050505050505060405180910390f35b3480156101fd57600080fd5b5061021c60048036038101908080359060200190929190505050610530565b604051808273ffffffffffffffffffffffffffffffffffffffff1673ffffffffffffffffffffffffffffffffffffffff16815260200191505060405180910390f35b34801561026a57600080fd5b50610273610563565b6040518082815260200191505060405180910390f35b34801561029557600080fd5b5061029e610569565b005b3480156102ac57600080fd5b50610307600480360381019080803590602001908201803590602001908080601f016020809104026020016040519081016040528093929190818152602001838380828437820191505050505050919291929050505061066b565b005b34801561031557600080fd5b5061031e6106e4565b604051808273ffffffffffffffffffffffffffffffffffffffff1673ffffffffffffffffffffffffffffffffffffffff16815260200191505060405180910390f35b34801561036c57600080fd5b50610375610709565b6040518082815260200191505060405180910390f35b34801561039757600080fd5b506103a061070f565b6040518082815260200191505060405180910390f35b3480156103c257600080fd5b506103f7600480360381019080803573ffffffffffffffffffffffffffffffffffffffff169060200190929190505050610715565b005b60066020528060005260406000206000915090505481565b60048181548110151561042057fe5b9060005260206000209060030201600091509050806000018054600181600116156101000203166002900480601f0160208091040260200160405190810160405280929190818152602001828054600181600116156101000203166002900480156104cc5780601f106104a1576101008083540402835291602001916104cc565b820191906000526020600020905b8154815290600101906020018083116104af57829003601f168201915b5050505050908060010154908060020160009054906101000a900463ffffffff16908060020160049054906101000a900463ffffffff16908060020160089054906101000a900461ffff169080600201600a9054906101000a900461ffff16905086565b60056020528060005260406000206000915054906101000a900473ffffffffffffffffffffffffffffffffffffffff1681565b60015481565b6000809054906101000a900473ffffffffffffffffffffffffffffffffffffffff1673ffffffffffffffffffffffffffffffffffffffff163373ffffffffffffffffffffffffffffffffffffffff161415156105c457600080fd5b6000809054906101000a900473ffffffffffffffffffffffffffffffffffffffff1673ffffffffffffffffffffffffffffffffffffffff167ff8df31144d9c2f0f6b59d69b8b98abd5459d07f2742c4df920b25aae33c6482060405160405180910390a260008060006101000a81548173ffffffffffffffffffffffffffffffffffffffff021916908373ffffffffffffffffffffffffffffffffffffffff160217905550565b600080600660003373ffffffffffffffffffffffffffffffffffffffff1673ffffffffffffffffffffffffffffffffffffffff168152602001908152602001600020541415156106ba57600080fd5b6106c38261077c565b90506064818115156106d157fe5b06810390506106e082826107fe565b5050565b6000809054906101000a900473ffffffffffffffffffffffffffffffffffffffff1681565b60035481565b60025481565b6000809054906101000a900473ffffffffffffffffffffffffffffffffffffffff1673ffffffffffffffffffffffffffffffffffffffff163373ffffffffffffffffffffffffffffffffffffffff1614151561077057600080fd5b61077981610a8a565b50565b600080826040518082805190602001908083835b6020831015156107b55780518252602082019150602081019050602083039250610790565b6001836020036101000a0380198251168184511680821785525050505050509050019150506040518091039020600190049050600254818115156107f557fe5b06915050919050565b60006001600460c060405190810160405280868152602001858152602001600163ffffffff168152602001600354420163ffffffff168152602001600061ffff168152602001600061ffff16815250908060018154018082558091505090600182039060005260206000209060030201600090919290919091506000820151816000019080519060200190610894929190610b84565b506020820151816001015560408201518160020160006101000a81548163ffffffff021916908363ffffffff16021790555060608201518160020160046101000a81548163ffffffff021916908363ffffffff16021790555060808201518160020160086101000a81548161ffff021916908361ffff16021790555060a082015181600201600a6101000a81548161ffff021916908361ffff1602179055505050039050336005600083815260200190815260200160002060006101000a81548173ffffffffffffffffffffffffffffffffffffffff021916908373ffffffffffffffffffffffffffffffffffffffff160217905550600660003373ffffffffffffffffffffffffffffffffffffffff1673ffffffffffffffffffffffffffffffffffffffff168152602001908152602001600020600081548092919060010191905055507f88f026aacbbecc90c18411df4b1185fd8d9be2470f1962f192bf84a27d0704b78184846040518084815260200180602001838152602001828103825284818151815260200191508051906020019080838360005b83811015610a49578082015181840152602081019050610a2e565b50505050905090810190601f168015610a765780820380516001836020036101000a031916815260200191505b5094505050505060405180910390a1505050565b600073ffffffffffffffffffffffffffffffffffffffff168173ffffffffffffffffffffffffffffffffffffffff1614151515610ac657600080fd5b8073ffffffffffffffffffffffffffffffffffffffff166000809054906101000a900473ffffffffffffffffffffffffffffffffffffffff1673ffffffffffffffffffffffffffffffffffffffff167f8be0079c531659141344cd1fd0a4f28419497f9722a3daafe3b4186f6b6457e060405160405180910390a3806000806101000a81548173ffffffffffffffffffffffffffffffffffffffff021916908373ffffffffffffffffffffffffffffffffffffffff16021790555050565b828054600181600116156101000203166002900490600052602060002090601f016020900481019282601f10610bc557805160ff1916838001178555610bf3565b82800160010185558215610bf3579182015b82811115610bf2578251825591602001919060010190610bd7565b5b509050610c009190610c04565b5090565b610c2691905b80821115610c22576000816000905550600101610c0a565b5090565b905600a165627a7a7230582025a037d9f7b8c47b8320b7704675bfbc56bd49fe550049e0363ba57e4d9b2b780029",
  "source": "pragma solidity \"0.4.24\";\r\n\r\nimport \"openzeppelin-solidity/contracts/ownership/Ownable.sol\";\r\nimport \"openzeppelin-solidity/contracts/math/SafeMath.sol\";\r\n\r\n\r\ncontract ZombieFactory is Ownable {\r\n\r\n    using SafeMath for uint256;\r\n\r\n    event NewZombie(uint zombieId, string name, uint dna);\r\n\r\n    uint public dnaDigits = 16;\r\n    uint public dnaModulus = 10 ** dnaDigits;\r\n    uint public cooldownTime = 1 days;\r\n\r\n    struct Zombie {\r\n        string name;\r\n        uint dna;\r\n        uint32 level;\r\n        uint32 readyTime;\r\n        uint16 winCount;\r\n        uint16 lossCount;\r\n    }\r\n\r\n    Zombie[] public zombies;\r\n\r\n    mapping (uint => address) public zombieToOwner;\r\n    mapping (address => uint) public ownerZombieCount;\r\n\r\n    function createRandomZombie(string _name) public {\r\n        require(ownerZombieCount[msg.sender] == 0);\r\n        uint randDna = _generateRandomDna(_name);\r\n        randDna = randDna - randDna % 100;\r\n        _createZombie(_name, randDna);\r\n    }\r\n\r\n    function _createZombie(string _name, uint _dna) internal {\r\n        uint id = zombies.push(Zombie(_name, _dna, 1, uint32(now + cooldownTime), 0, 0)) - 1;\r\n        zombieToOwner[id] = msg.sender;\r\n        ownerZombieCount[msg.sender]++;\r\n        emit NewZombie(id, _name, _dna);\r\n    }   \r\n\r\n    function _generateRandomDna(string _str) private view returns (uint) {\r\n        uint rand = uint(keccak256(_str));\r\n        return rand % dnaModulus;\r\n    }\r\n}\r\n",
  "sourcePath": "D:\\GitHub\\Blockchain-Ethereum-Solidity\\CryptoZombies\\contracts\\zombiefactory.sol",
  "compiler": {
    "name": "solc",
    "version": "0.4.24+commit.e67f0147.Emscripten.clang"
  },
  "schemaVersion": "2.0.1",
  "updatedAt": "2018-09-14T13:44:42.353Z"
}