{
  "contractName": "LegoCertificationStore",
  "abi": [
    {
      "constant": true,
      "inputs": [
        {
          "name": "",
          "type": "uint256"
        }
      ],
      "name": "certificateToOwner",
      "outputs": [
        {
          "name": "",
          "type": "address"
        }
      ],
      "payable": false,
      "stateMutability": "view",
      "type": "function"
    },
    {
      "constant": true,
      "inputs": [
        {
          "name": "",
          "type": "uint256"
        }
      ],
      "name": "certificates",
      "outputs": [
        {
          "name": "name",
          "type": "string"
        },
        {
          "name": "number",
          "type": "string"
        },
        {
          "name": "theme",
          "type": "string"
        },
        {
          "name": "subtheme",
          "type": "string"
        },
        {
          "name": "descritpion",
          "type": "string"
        },
        {
          "name": "bricksJsonData",
          "type": "string"
        },
        {
          "name": "dna",
          "type": "uint256"
        }
      ],
      "payable": false,
      "stateMutability": "view",
      "type": "function"
    },
    {
      "constant": true,
      "inputs": [],
      "name": "dnaDigits",
      "outputs": [
        {
          "name": "",
          "type": "uint256"
        }
      ],
      "payable": false,
      "stateMutability": "view",
      "type": "function"
    },
    {
      "constant": false,
      "inputs": [],
      "name": "renounceOwnership",
      "outputs": [],
      "payable": false,
      "stateMutability": "nonpayable",
      "type": "function"
    },
    {
      "constant": true,
      "inputs": [],
      "name": "owner",
      "outputs": [
        {
          "name": "",
          "type": "address"
        }
      ],
      "payable": false,
      "stateMutability": "view",
      "type": "function"
    },
    {
      "constant": true,
      "inputs": [
        {
          "name": "",
          "type": "address"
        }
      ],
      "name": "ownerCertificateCount",
      "outputs": [
        {
          "name": "",
          "type": "uint256"
        }
      ],
      "payable": false,
      "stateMutability": "view",
      "type": "function"
    },
    {
      "constant": true,
      "inputs": [],
      "name": "dnaModulus",
      "outputs": [
        {
          "name": "",
          "type": "uint256"
        }
      ],
      "payable": false,
      "stateMutability": "view",
      "type": "function"
    },
    {
      "constant": false,
      "inputs": [
        {
          "name": "_newOwner",
          "type": "address"
        }
      ],
      "name": "transferOwnership",
      "outputs": [],
      "payable": false,
      "stateMutability": "nonpayable",
      "type": "function"
    },
    {
      "anonymous": false,
      "inputs": [
        {
          "indexed": false,
          "name": "certificateId",
          "type": "uint256"
        },
        {
          "indexed": false,
          "name": "name",
          "type": "string"
        },
        {
          "indexed": false,
          "name": "number",
          "type": "string"
        },
        {
          "indexed": false,
          "name": "theme",
          "type": "string"
        },
        {
          "indexed": false,
          "name": "subtheme",
          "type": "string"
        },
        {
          "indexed": false,
          "name": "descritpion",
          "type": "string"
        },
        {
          "indexed": false,
          "name": "bricksJsonData",
          "type": "string"
        },
        {
          "indexed": false,
          "name": "dna",
          "type": "uint256"
        }
      ],
      "name": "NewCertificate",
      "type": "event"
    },
    {
      "anonymous": false,
      "inputs": [
        {
          "indexed": true,
          "name": "previousOwner",
          "type": "address"
        }
      ],
      "name": "OwnershipRenounced",
      "type": "event"
    },
    {
      "anonymous": false,
      "inputs": [
        {
          "indexed": true,
          "name": "previousOwner",
          "type": "address"
        },
        {
          "indexed": true,
          "name": "newOwner",
          "type": "address"
        }
      ],
      "name": "OwnershipTransferred",
      "type": "event"
    },
    {
      "constant": false,
      "inputs": [
        {
          "name": "_name",
          "type": "string"
        },
        {
          "name": "_number",
          "type": "string"
        },
        {
          "name": "_theme",
          "type": "string"
        },
        {
          "name": "_subtheme",
          "type": "string"
        },
        {
          "name": "_descritpion",
          "type": "string"
        },
        {
          "name": "_bricksJsonData",
          "type": "string"
        },
        {
          "name": "_bricks",
          "type": "string[]"
        },
        {
          "name": "_registers",
          "type": "string[]"
        }
      ],
      "name": "createRandomZombie",
      "outputs": [],
      "payable": false,
      "stateMutability": "nonpayable",
      "type": "function"
    }
  ],
  "bytecode": "0x60806040526010600155600154600a0a600255336000806101000a81548173ffffffffffffffffffffffffffffffffffffffff021916908373ffffffffffffffffffffffffffffffffffffffff1602179055506113f7806100616000396000f300608060405260043610610099576000357c0100000000000000000000000000000000000000000000000000000000900463ffffffff168063531a8bb21461009e578063663b3e22146100db578063692c66271461011e578063715018a6146101495780638da5cb5b14610160578063abb82dba1461018b578063be2665c7146101b4578063daba0711146101f1578063f2fde38b1461021c575b600080fd5b3480156100aa57600080fd5b506100c560048036036100c09190810190611029565b610245565b6040516100d291906110dc565b60405180910390f35b3480156100e757600080fd5b5061010260048036036100fd9190810190611029565b610278565b60405161011597969594939291906110f7565b60405180910390f35b34801561012a57600080fd5b50610133610659565b6040516101409190611190565b60405180910390f35b34801561015557600080fd5b5061015e61065f565b005b34801561016c57600080fd5b50610175610761565b60405161018291906110dc565b60405180910390f35b34801561019757600080fd5b506101b260048036036101ad9190810190610eb7565b610786565b005b3480156101c057600080fd5b506101db60048036036101d69190810190610e8e565b6107af565b6040516101e89190611190565b60405180910390f35b3480156101fd57600080fd5b506102066107c7565b6040516102139190611190565b60405180910390f35b34801561022857600080fd5b50610243600480360361023e9190810190610e8e565b6107cd565b005b60046020528060005260406000206000915054906101000a900473ffffffffffffffffffffffffffffffffffffffff1681565b60038181548110151561028757fe5b9060005260206000209060070201600091509050806000018054600181600116156101000203166002900480601f0160208091040260200160405190810160405280929190818152602001828054600181600116156101000203166002900480156103335780601f1061030857610100808354040283529160200191610333565b820191906000526020600020905b81548152906001019060200180831161031657829003601f168201915b505050505090806001018054600181600116156101000203166002900480601f0160208091040260200160405190810160405280929190818152602001828054600181600116156101000203166002900480156103d15780601f106103a6576101008083540402835291602001916103d1565b820191906000526020600020905b8154815290600101906020018083116103b457829003601f168201915b505050505090806002018054600181600116156101000203166002900480601f01602080910402602001604051908101604052809291908181526020018280546001816001161561010002031660029004801561046f5780601f106104445761010080835404028352916020019161046f565b820191906000526020600020905b81548152906001019060200180831161045257829003601f168201915b505050505090806003018054600181600116156101000203166002900480601f01602080910402602001604051908101604052809291908181526020018280546001816001161561010002031660029004801561050d5780601f106104e25761010080835404028352916020019161050d565b820191906000526020600020905b8154815290600101906020018083116104f057829003601f168201915b505050505090806004018054600181600116156101000203166002900480601f0160208091040260200160405190810160405280929190818152602001828054600181600116156101000203166002900480156105ab5780601f10610580576101008083540402835291602001916105ab565b820191906000526020600020905b81548152906001019060200180831161058e57829003601f168201915b505050505090806005018054600181600116156101000203166002900480601f0160208091040260200160405190810160405280929190818152602001828054600181600116156101000203166002900480156106495780601f1061061e57610100808354040283529160200191610649565b820191906000526020600020905b81548152906001019060200180831161062c57829003601f168201915b5050505050908060060154905087565b60015481565b6000809054906101000a900473ffffffffffffffffffffffffffffffffffffffff1673ffffffffffffffffffffffffffffffffffffffff163373ffffffffffffffffffffffffffffffffffffffff161415156106ba57600080fd5b6000809054906101000a900473ffffffffffffffffffffffffffffffffffffffff1673ffffffffffffffffffffffffffffffffffffffff167ff8df31144d9c2f0f6b59d69b8b98abd5459d07f2742c4df920b25aae33c6482060405160405180910390a260008060006101000a81548173ffffffffffffffffffffffffffffffffffffffff021916908373ffffffffffffffffffffffffffffffffffffffff160217905550565b6000809054906101000a900473ffffffffffffffffffffffffffffffffffffffff1681565b6000610793898686610834565b90506107a489898989898987610993565b505050505050505050565b60056020528060005260406000206000915090505481565b60025481565b6000809054906101000a900473ffffffffffffffffffffffffffffffffffffffff1673ffffffffffffffffffffffffffffffffffffffff163373ffffffffffffffffffffffffffffffffffffffff1614151561082857600080fd5b61083181610ba5565b50565b600080600080866040518082805190602001908083835b602083101515610870578051825260208201915060208101905060208303925061084b565b6001836020036101000a0380198251168184511680821785525050505050509050019150506040518091039020600190049250856040518082805190602001908083835b6020831015156108d957805182526020820191506020810190506020830392506108b4565b6001836020036101000a0380198251168184511680821785525050505050509050019150506040518091039020600190049150846040518082805190602001908083835b602083101515610942578051825260208201915060208101905060208303925061091d565b6001836020036101000a0380198251168184511680821785525050505050509050019150506040518091039020600190049050600254818385010381151561098657fe5b0693505050509392505050565b60006001600360e0604051908101604052808b81526020018a815260200189815260200188815260200187815260200186815260200185815250908060018154018082558091505090600182039060005260206000209060070201600090919290919091506000820151816000019080519060200190610a14929190610c9f565b506020820151816001019080519060200190610a31929190610c9f565b506040820151816002019080519060200190610a4e929190610c9f565b506060820151816003019080519060200190610a6b929190610c9f565b506080820151816004019080519060200190610a88929190610c9f565b5060a0820151816005019080519060200190610aa5929190610c9f565b5060c082015181600601555050039050336004600083815260200190815260200160002060006101000a81548173ffffffffffffffffffffffffffffffffffffffff021916908373ffffffffffffffffffffffffffffffffffffffff160217905550600560003373ffffffffffffffffffffffffffffffffffffffff1673ffffffffffffffffffffffffffffffffffffffff168152602001908152602001600020600081548092919060010191905055507f2103c40b1f5e714ab7ed53d7379f1ebf74e43d5e417af90f6dab9fb8b5c3e21e8189898989898989604051610b939897969594939291906111ab565b60405180910390a15050505050505050565b600073ffffffffffffffffffffffffffffffffffffffff168173ffffffffffffffffffffffffffffffffffffffff1614151515610be157600080fd5b8073ffffffffffffffffffffffffffffffffffffffff166000809054906101000a900473ffffffffffffffffffffffffffffffffffffffff1673ffffffffffffffffffffffffffffffffffffffff167f8be0079c531659141344cd1fd0a4f28419497f9722a3daafe3b4186f6b6457e060405160405180910390a3806000806101000a81548173ffffffffffffffffffffffffffffffffffffffff021916908373ffffffffffffffffffffffffffffffffffffffff16021790555050565b828054600181600116156101000203166002900490600052602060002090601f016020900481019282601f10610ce057805160ff1916838001178555610d0e565b82800160010185558215610d0e579182015b82811115610d0d578251825591602001919060010190610cf2565b5b509050610d1b9190610d1f565b5090565b610d4191905b80821115610d3d576000816000905550600101610d25565b5090565b90565b6000610d508235611340565b905092915050565b600082601f8301121515610d6b57600080fd5b8135610d7e610d7982611280565b611253565b9150818183526020840193506020810190508360005b83811015610dc45781358601610daa8882610dce565b845260208401935060208301925050600181019050610d94565b5050505092915050565b600082601f8301121515610de157600080fd5b8135610df4610def826112a8565b611253565b91508082526020830160208301858383011115610e1057600080fd5b610e1b83828461136a565b50505092915050565b600082601f8301121515610e3757600080fd5b8135610e4a610e45826112d4565b611253565b91508082526020830160208301858383011115610e6657600080fd5b610e7183828461136a565b50505092915050565b6000610e868235611360565b905092915050565b600060208284031215610ea057600080fd5b6000610eae84828501610d44565b91505092915050565b600080600080600080600080610100898b031215610ed457600080fd5b600089013567ffffffffffffffff811115610eee57600080fd5b610efa8b828c01610e24565b985050602089013567ffffffffffffffff811115610f1757600080fd5b610f238b828c01610e24565b975050604089013567ffffffffffffffff811115610f4057600080fd5b610f4c8b828c01610e24565b965050606089013567ffffffffffffffff811115610f6957600080fd5b610f758b828c01610e24565b955050608089013567ffffffffffffffff811115610f9257600080fd5b610f9e8b828c01610e24565b94505060a089013567ffffffffffffffff811115610fbb57600080fd5b610fc78b828c01610e24565b93505060c089013567ffffffffffffffff811115610fe457600080fd5b610ff08b828c01610d58565b92505060e089013567ffffffffffffffff81111561100d57600080fd5b6110198b828c01610d58565b9150509295985092959890939650565b60006020828403121561103b57600080fd5b600061104984828501610e7a565b91505092915050565b61105b81611316565b82525050565b600061106c8261130b565b808452611080816020860160208601611379565b611089816113ac565b602085010191505092915050565b60006110a282611300565b8084526110b6816020860160208601611379565b6110bf816113ac565b602085010191505092915050565b6110d681611336565b82525050565b60006020820190506110f16000830184611052565b92915050565b600060e0820190508181036000830152611111818a611097565b905081810360208301526111258189611097565b905081810360408301526111398188611097565b9050818103606083015261114d8187611097565b905081810360808301526111618186611097565b905081810360a08301526111758185611097565b905061118460c08301846110cd565b98975050505050505050565b60006020820190506111a560008301846110cd565b92915050565b6000610100820190506111c1600083018b6110cd565b81810360208301526111d3818a611061565b905081810360408301526111e78189611061565b905081810360608301526111fb8188611061565b9050818103608083015261120f8187611061565b905081810360a08301526112238186611061565b905081810360c08301526112378185611061565b905061124660e08301846110cd565b9998505050505050505050565b6000604051905081810181811067ffffffffffffffff8211171561127657600080fd5b8060405250919050565b600067ffffffffffffffff82111561129757600080fd5b602082029050602081019050919050565b600067ffffffffffffffff8211156112bf57600080fd5b601f19601f8301169050602081019050919050565b600067ffffffffffffffff8211156112eb57600080fd5b601f19601f8301169050602081019050919050565b600081519050919050565b600081519050919050565b600073ffffffffffffffffffffffffffffffffffffffff82169050919050565b6000819050919050565b600073ffffffffffffffffffffffffffffffffffffffff82169050919050565b6000819050919050565b82818337600083830152505050565b60005b8381101561139757808201518184015260208101905061137c565b838111156113a6576000848401525b50505050565b6000601f19601f83011690509190505600a265627a7a72305820197c392c298d54e672e3534ce170f04c4672bddb0d78cc9ab9791cc79eda706c6c6578706572696d656e74616cf50037",
  "source": "pragma solidity \"0.4.24\";\r\npragma experimental ABIEncoderV2;\r\n\r\nimport \"openzeppelin-solidity/contracts/ownership/Ownable.sol\";\r\nimport \"openzeppelin-solidity/contracts/math/SafeMath.sol\";\r\n\r\n\r\ncontract LegoCertificationStore is Ownable {\r\n    \r\n    using SafeMath for uint256;\r\n\r\n    event NewCertificate(uint certificateId, string name, string number, \r\n        string theme, string subtheme, string descritpion, string bricksJsonData, uint dna);\r\n\r\n    uint public dnaDigits = 16;\r\n    uint public dnaModulus = 10 ** dnaDigits;\r\n    // uint public cooldownTime = 1 days;\r\n\r\n    struct LegoCertificate {\r\n        string name;\r\n        string number;\r\n        string theme;\r\n        string subtheme;\r\n        string descritpion;\r\n        string bricksJsonData;\r\n        uint dna;\r\n    }\r\n\r\n    LegoCertificate[] public certificates;\r\n\r\n    mapping (uint => address) public certificateToOwner;\r\n    mapping (address => uint) public ownerCertificateCount;\r\n\r\n    function createRandomZombie(string _name, \r\n        string _number,\r\n        string _theme,\r\n        string _subtheme,\r\n        string _descritpion,\r\n        string _bricksJsonData, string[] _bricks, string[] _registers) public {\r\n        //require(ownerZombieCount[msg.sender] == 0);\r\n        uint randDna = _generateRandomDna(_name, _descritpion, _bricksJsonData);\r\n        //randDna = randDna - randDna % 100;\r\n        _createCertificate(_name, _number, _theme, _subtheme, _descritpion, _bricksJsonData, randDna);\r\n    }\r\n\r\n    function _createCertificate(string _name, \r\n        string _number,\r\n        string _theme,\r\n        string _subtheme,\r\n        string _descritpion,\r\n        string _bricksJsonData,\r\n        uint _dna) internal {\r\n        uint id = certificates.push(\r\n            LegoCertificate(_name, _number, _theme, _subtheme, _descritpion, _bricksJsonData, _dna)) - 1;\r\n        certificateToOwner[id] = msg.sender;\r\n        ownerCertificateCount[msg.sender]++;\r\n        emit NewCertificate(id, _name, _number, _theme, _subtheme, _descritpion, _bricksJsonData, _dna);\r\n    }\r\n    \r\n    function _generateRandomDna(string _str1, string _str2, string _str3) private view returns (uint) {\r\n        uint rand1 = uint(keccak256(_str1));\r\n        uint rand2 = uint(keccak256(_str2));\r\n        uint rand3 = uint(keccak256(_str3));\r\n        return (rand1 + rand2 - rand3) % dnaModulus;\r\n    }\r\n\r\n}",
  "sourcePath": "D:\\GitHub\\Blockchain-Ethereum-Solidity\\LegoCertificationStore\\contracts\\LegoCertificationStore.sol",
  "compiler": {
    "name": "solc",
    "version": "0.4.24+commit.e67f0147.Emscripten.clang"
  },
  "schemaVersion": "2.0.1",
  "updatedAt": "2018-09-14T16:41:33.352Z"
}